:020000040000FA
:1000000000008A110A12E32AF200030E8301F100B4
:100010000A088A01F000040883160313A6008A1157
:100020000A1238228A110A128A110A127F238A11AF
:100030000A128A110A12DF238A110A128312031389
:100040000B117030810083160313260883120313EB
:10005000840070088A008301710E8300F20E720E14
:10006000090083120313AA007F08A9007E08AD00CF
:100070007D08AC007C08AB00E830FD000330FE00DA
:100080002908FF002A088A110A127D248A110A12FF
:1000900083120313AF007F08AE006430FD00003010
:1000A000FE002E08FF002F088A110A122E248A1142
:1000B0000A1283120313AF007F08AE00B000303085
:1000C0003007AE00FD002B08FE002C08FF002D08B5
:1000D0008A110A1201258A110A12013083120313B0
:1000E0002B07AE00B001B00D2C08B007B101B10D67
:1000F0002D08B1076430FD000030FE002908FF0024
:100100002A088A110A127D248A110A128312031303
:10011000B3007F08B2000A30FD000030FE00320854
:10012000FF0033088A110A122E248A110A12831240
:100130000313B3007F08B200B40030303407B200BC
:10014000FD002E08FE003008FF0031088A110A1257
:1001500001258A110A120230831203132B07AE0005
:10016000B001B00D2C08B007B101B10D2D08B107D9
:100170000A30FD000030FE002908FF002A088A111D
:100180000A127D248A110A1283120313AA007F081F
:10019000A900B20030303207A900FD002E08FE0091
:1001A0003008FF0031088A110A1201258A110A124B
:1001B000033083120313AB070318AC0A0319AD0A0B
:1001C0000030FD002B08FE002C08FF002D088A11CE
:1001D0000A1201258A110A12080083120313A300D0
:1001E0007F08A2007E08A100A40183120313240843
:1001F0002107A50022080318013EA60023080318C2
:10020000013EA7002508FE002608FF0027088A11E6
:100210000A120D258A110A1283120313A800280856
:10022000031918292808192183120313A40AF52891
:10023000080083120313A00083160313981C1C29C3
:1002400083120313200883120313990083120313EC
:100250000C1E262908008316031318138312031398
:100260001813181B0030831603139816181218154C
:100270008312031398171816193083160313990065
:10028000080083120313C4007F08C5008312031300
:100290001F1483120313450C0318512983160313EB
:1002A0009F13031C5629831603139F1704308312D0
:1002B00003134405C6000310460CC7000310C70C07
:1002C000470C03186629831203139F12031C6B2922
:1002D000831203139F160230831203134405C600D2
:1002E0000310460CC700470C031879298312031327
:1002F0001F12031C7E29831203131F16831203137C
:1003000044080139C600C400440C03188A2983122A
:1003100003139F11031C8F29831203139F1583124C
:1003200003131F1583120313C401831203131F1D2C
:100330009C2983120313C40A831203134408C600C2
:10034000013A0319922945080319BB2983120313A3
:100350001E0883120313C700C500C401C60183161B
:1003600003131E0883120313C500C4010030C50423
:100370004708C404DA29831203131E0883120313E7
:10038000C600C7010310460DC800470DC900031081
:10039000C80DC90D831603131E0E0F3983120313E4
:1003A000C6000310C60C0310C60C46084804C5005E
:1003B0004908C40083120313450883120313CA00BB
:1003C00083120313440883120313CB008312031315
:1003D0001F10831203134A08FF004B080800831202
:1003E0000313C100831203131F100430831203137D
:1003F0004105C2000310420CC3000310C30C430CA0
:100400000318052A831603131F13031C0A2A8316D5
:1004100003131F170230831203134105C200031098
:10042000420CC300430C0318182A831203139F13B2
:10043000031C1D2A831203139F1783120313410801
:100440000139C200C100410C0318292A8312031389
:100450001F13031C2E2A831203131F178316031363
:100460001F109F141F110800831203136208080055
:10047000323083120313E6076608323A031DCD2A91
:10048000E60183120313640883120313E10083124D
:100490000313E300650883120313E10083120313BF
:1004A000E400023083120313060583120313E100F4
:1004B0000310610C83120313E50062088312031317
:1004C000E100043061020318CD2A023083120313C5
:1004D0008A007330831203136107031C722A83128C
:1004E00003138A0A8200772A8D2AA22AB82A831245
:1004F0000313650883120313E100031DCD2A831241
:100500000313630883120313E100013A031DCD2A8C
:10051000013083120313E200CD2A8312031365080E
:1005200083120313E100031DCD2A83120313640811
:1005300083120313E100031DCD2A0230831203133B
:10054000E200CD2A83120313650883120313E1002E
:10055000013A031DCD2A8312031363088312031388
:10056000E100031DCD2A033083120313E200CD2ADC
:1005700083120313650883120313E100013A031D7C
:10058000CD2A83120313640883120313E100013A96
:10059000031DCD2A83120313E201080083160313FF
:1005A000060883120313E000E01002306004831693
:1005B00003138600013083120313E300E4000130CB
:1005C000E500E20108008630FE000530FF008030C3
:1005D0008A110A1220258A110A1283120313B60007
:1005E0007F08B5008830B7000530B80083120313C8
:1005F0003508B9003608BA00FF30B507031CB6034A
:1006000039083A0403197B2B04303707B900BA01C3
:10061000BA0D3808BA073908FE003A08FF008030E2
:100620008A110A1220258A110A1283120313BC00B0
:100630007F08BB003708FE003808FF0080308A11B1
:100640000A1220258A110A1283120313BE00BA006F
:100650007F08BD00B90002303707B900BA01BA0DF2
:100660003808BA073908FE003A08FF0080308A11BE
:100670000A1220258A110A1283120313BA00C0003D
:100680007F08B900BF00831203133B08BF003C087A
:10069000C000FF30BB07031CBC033F084004031924
:1006A000742B3D08FE003E08FF0080308A110A12BC
:1006B0000D258A110A1283120313BF003908831211
:1006C000031384008313831203133A1883173F081C
:1006D00083120313800083120313BD0A0319BE0A99
:1006E000B90A0319BA0A432B063083120313B7075A
:1006F0000318B80AF62A8A110A12662D0800323049
:1007000083160313A3072308323A031DD82BA30132
:100710008A110A1234228A110A1283160313A000C6
:10072000013A031DD82B8A110A12C4248A110A1215
:10073000053083160313A1009430A0008030A2007E
:100740002008FE002108FF0022088A110A12ED206D
:100750008A110A128A110A12C0248A110A128316F7
:100760000313A0002008031DC62B0530A1009C30F8
:10077000A0008030A2002008FE002108FF0022080F
:100780008A110A12ED208A110A12D82B053083161D
:100790000313A100A030A0008030A2002008FE00BA
:1007A0002108FF0022088A110A12ED208A110A127C
:1007B0000800831203135108FF005208080032306A
:1007C00083120313CF070318D00A4F08B83A031D4A
:1007D000EC2B50080B3A031D262C83120313CF0178
:1007E000D0010030FF0001308A110A1241218A1124
:1007F0000A1283120313D2007F08D1000030831243
:100800000313CD005330CC00CE014C08FC004D0842
:10081000FD000030FE00831203135108FF00520850
:100820008A110A1231208A110A120030831203132E
:10083000CD005330CC00CE014C08FE004D08FF0027
:1008400000308A110A12ED208A110A1208000130C4
:100850008A110A12EF218A110A1208008312031367
:10086000D8007F08D7007E08DA007D08D900DB01B8
:10087000DC010130DD00DE0159085A04031D442C5F
:10088000FF30FF00FF307C2C8312031359085A08F5
:10089000DF00DF1B522C0310D90DDA0D0310DD0D24
:1008A000DE0D442C831203135D085E040319772CBC
:1008B0005A085802031D5E2C59085702031C6E2C5F
:1008C000831203135D08DB075E0803185E0FDC0765
:1008D0005908D7025A08031C5A0FD8020310831272
:1008E0000313DA0CD90C0310DE0CDD0C522C83122E
:1008F00003135B08FF005C08080083120313E80081
:100900007F08E7007E08EA007D08E9006A04031D0D
:100910008D2CFF30FF00FF30BF2C013083120313FA
:10092000EB008312031369086A08EC00EC1B9D2C92
:100930000310E90DEA0DEB0A912C0030831203132A
:100940006B040319BA2C6A086802031DA92C6908F4
:100950006702031CB32C831203136908E7026A08B9
:10096000031C6A0FE802031083120313EA0CE90C5C
:10097000EB039D2C831203136708FF00680808002F
:10098000831603132408080000308316031324047D
:10099000031DDB2C83120313060883120313EE00DE
:1009A0006E1104306E048312031386000130831627
:1009B0000313A400E92C8312031306088312031304
:1009C000EE00FB306E0583120313860083160313BB
:1009D000A401080083160313060883120313ED0015
:1009E000FB306D058316031386008312031306087C
:1009F00083120313ED00FB306D0583120313860091
:100A00000800003A0319052D08007E0884008313AE
:100A10007F1883177D0880000800003A0319142D01
:100A2000803A03191B2D00347E08840083137F183D
:100A30008317000808007F088A007E0882000800EB
:100A4000003A0319282D803A0319322DFF01003492
:100A50007E08840083137F1883170008FF00840A30
:100A6000000808008A110A121B25FD00FE0FFF0373
:100A7000FF0A8A110A121B25FC007D08FF007C0872
:100A80000800831603138116080083160313A501BB
:100A9000831203130B1D4F2D83160313A50A831610
:100AA000031325080800831203130B117030810013
:100AB0008B168B17831603138112080083160313FA
:100AC0000115811401148111811608008A110A127E
:100AD000CE228A110A128A110A12EA248A110A12F3
:100AE0008A110A122B218A110A128A110A1227244A
:100AF0008A110A128A110A125E258A110A128A11B3
:100B00000A1253258A110A12842D08000234003477
:100B1000A3340534A434003401340034A43405343F
:100B2000A7340034013400347034723465347334C3
:100B300073346534643400344F34463446340034FE
:0A0B40004F344E340034003400340A
:02400E00323F3F
:00000001FF
